S0100000456E636F646556312E737265633F
S1130000500400202501000021010000210100000E
S113001000000000000000000000000000000000DC
S113002000000000000000000000000021010000AA
S11300300000000000000000210100002101000078
S11300402101000021010000210100002101000024
S113005021010000610700002101000021010000CE
S11300602101000021010000210100002101000004
S11300702101000000000000000000002101000038
S113008021010000210100002101000021010000E4
S11300902101000000000000000000002101000018
S11300A021010000210100002101000021010000C4
S11300B00000000010B5064C2378002B07D1054B37
S11300C0002B02D0044800E000BF0123237010BDC0
S11300D00000002000000000300A0000084B10B5AA
S11300E0002B03D00749084800E000BF0748036815
S11300F0002B00D110BD064B002BFBD09847F9E72D
S11301000000000004000020300A0000300A000053
S11301100000000010B5014B984710BD1D030000FE
S1130120FEE70000F8B52A4A2A4B9A4211D01A0079
S1130130294B9A420DD2294A03339B1A9B08013357
S11301409B000022234822498C58845004329A424E
S1130150FAD1234A234B9A420AD2D34321495B184A
S113016003218B4304339B18002102C29342FCD128
S11301701D4AFF211D4B8B439360FD3990235B0087
S11301801B4AD1501B4AD3780325AB430224234393
S1130190D370D3780C27BB4308263343D370164B54
S11301A0987B30229043202210439873997BB94363
S11301B0314399739A7BAA4322439A730F4A536833
S11301C080210B4353600E4B98470E4B9847FEE734
S11301D0300A00000000002000000020040000207D
S11301E0000000204C00002000ED00E000000000B2
S11301F000700041005000410048004100400041AF
S113020009090000FD080000044A116A80235B020A
S11302100B431362024A034B5A80704700040040A8
S11302201E400000000C004010B5044B984700220B
S113023003490448044B984710BDC0460902000016
S1130240004000423C000020A9030000024AD36998
S113025004210B43D36170470004004010B5034BE5
S1130260984703490348044B984710BD4D020000CA
S11302700040004120000020F503000070B5124B3F
S11302804820195C042291431954195C0125A9439F
S113029001242143C9B219541438195C0F26B143FF
S11302A00D3E3143195449215E5C96435E545A5CB9
S11302B0AA432243D2B25A541A5C3A390A40113141
S11302C00A431A5470BDC04600440041054A136AEB
S11302D004210B431362044B044A5A80044A5A8093
S11302E07047C04600040040000C00401440000069
S11302F01343000010B5044B984704490448054BC8
S11303009847054B984710BDCD02000000080042F5
S113031040000020210500007D02000070B5194B4B
S11303209847C020C00510234360174B174A9A62B0
S1130330C0210906996244255C5D012294435C5501
S113034020244460124C9C62996201355C5D9443A4
S11303505C55402444600F4C9C62996201355C5D9D
S113036094435C55802444600B489862996247200A
S1130370195C91431954094B9847094B9847094B09
S1130380984770BDB10600000044004110000040D1
S1130390200000404000004080000040290200008E
S11303A05D020000F502000070B504000D00002895
S11303B00CD00800431E9841C0B239220449054BB1
S11303C0984729002000044B984770BD0020F4E7AB
S11303D050090000690500007906000010B5436962
S11303E0002B00D0984710BD10B58369002B00D0B6
S11303F0984710BD70B505000C00002812D0080005
S1130400431E9841C0B238220749084B984721003F
S11304102800074B9847002803D1064B2B60064B56
S11304206B6070BD0020EEE76C09000069050000F8
S113043001070000DD030000E9030000F8B5CE4623
S1130440474680B504000F009046002826D00029B6
S113045026D01000431E9841B6221249124B9847E9
S1130460043C124D2000A8470028FBD00026104B66
S113047099460E4D39782000C8472000A847002827
S1130480FBD00136B6B20137B045F3D82000094B92
S1130490984730000CBC90469946F8BD0020DBE735
S11304A00020D9E7840900006905000087080000DE
S11304B0750800009B080000F8B5CE46474680B595
S11304C004000F00904600281ED000291ED0100002
S11304D0431E98419C220E490E4B98470026043C2B
S11304E00D4D0E4B99462000A8470028FBD0200054
S11304F0C84738700136B6B20137B045F3D830007A
S11305000CBC90469946F8BD0020E3E70020E1E7E3
S11305108409000069050000910800007D080000BE
S113052070B505000C00002812D00800431E984145
S1130530C0B235220749084B984721002800074BD1
S11305409847002803D1064BAB60064B6B6070BD27
S11305500020EEE78409000069050000410800005E
S1130560B90400003D040000002800D100BE70471B
S11305700020704770B504000D00394BC01842428A
S11305804241D0B294223749374B9847374B1A68C7
S11305905201E023DB001A40354B596849011B68BE
S11305A0DB0E0B43FF210B401A43637EDB09FCD1B6
S11305B023789B0704D500232370637EDB09FCD1D9
S11305C001232370637EDB09FCD12285EA00521BE0
S11305D09200284B9B189A786270DA78A2701A7984
S11305E0E2701A7C2275DA8AA2841A8BE284997EDC
S11305F02A22A154DB88A380637EDB09FCD1EB00B3
S11306005B1B9B001B4AD318DB682361637EDB09F9
S1130610FCD1EB005B1B9B00164AD3181B7A237298
S1130620637EDB09FCD1EB005B1B9B00114AD318F2
S11306305B8AA383637EDB09FCD1EB005B1B9B001D
S11306400C4AD3189B8A2384637EDB09FCD1EB001C
S11306505D1BAD00074B5D196B782370002070BDE6
S113066000C0FFBDBC0900006905000024608000D3
S113067020608000A009000070B505000C00431E36
S11306809841C0B2C5220649064B98472C60200009
S1130690054B984701002000044B984770BDC046A5
S11306A0BC09000069050000710500007505000023
S11306B010B5064B5A685A60054B9847054B984746
S11306C0054B9847FF20054B984710BD004000415B
S11306D091070000A5080000ED080000E1060000F5
S11306E0C3070AD5054B802252009A608322520226
S11306F05A601A005378DB09FCD17047000C0040A3
S113070070B505000C0000281DD0104BC8184342DA
S11307105841C0B246220E490E4B98472C6162687C
S11307209E23134063600C4B1D600C4B20228021E0
S11307305A50BFF34F8FBFF36F8F0131FF315A50BF
S11307401A60002070BD0020E4E7C04600C0FFBE70
S1130750D4090000690500001C00002000E100E04D
S113076010B50A4B186803691A7DD20704D50368CB
S1130770002B00D0984710BD1A7D9207FBD50222AA
S11307801A754368002BF6D09847F4E71C00002044
S1130790064B1A7AD2B21A725A7AD2B25A729A7A28
S11307A0D2B29A72DA7AD2B2DA7270470004004096
S11307B010B51E4BC3189B0ADBB2002B07D01C4A92
S11307C01C4900201C4B98470D2040422CE0C36973
S11307D0DB0718D40322C3691A42FCD103689B07C0
S11307E00BD503680222934303600132C3691A42A2
S11307F0FCD10222C3691A42FCD1112303600322F3
S1130800C3691A42FCD10122C3691A42FCD10B4BC1
S113081003600322C3691A42FCD1A023DB004360B6
S1130820A5235B004362002010BDC04600F8FFBD55
S1130830A6070000F409000069050000100020026A
S113084070B505000C00431E9841C0B2054A064924
S1130850064B98472000064B9847002800D12C608F
S113086070BDC04695060000F4090000690500004B
S1130870B107000002682823D15470470268282376
S1130880D05CC0B270470368187E4007C00F704741
S11308900368187E4007C00F7047036804221A7665
S11308A0002070470E4B1A6A196A0E480240890FDD
S11308B089070D4801430A431A629A6902210A43CF
S11308C09A611A7F1D310A401A7719000822CB68F1
S11308D01A42FCD0024A136A80210B431362704708
S11308E0000800400000FF0F02030000024A936961
S11308F002218B43936170470008004010B5014BFF
S11309009847FEE71501000070B500260C4D0D4C0C
S1130910641BA410A64209D1002600F079F80A4D00
S11309200A4C641BA410A64205D170BDB300EB5859
S113093098470136EEE7B300EB5898470136F2E7E3
S11309401C0A00001C0A00001C0A0000200A000007
S11309502E2E2F68616C2F7372632F68616C5F6138
S113096064635F73796E632E630000002E2E2F681C
S1130970616C2F7372632F68616C5F666C6173685E
S11309802E6300002E2E2F68616C2F7372632F6804
S1130990616C5F6932635F735F73796E632E6300AA
S11309A00002000000000000000000000000000041
S11309B00000000000000000000000002E2E2F6840
S11309C0706C2F6164632F68706C5F6164632E6365
S11309D0000000002E2E2F68706C2F6E766D6374ED
S11309E0726C2F68706C5F6E766D6374726C2E63BC
S11309F0000000002E2E2F68706C2F736572636FD9
S1130A006D2F68706C5F736572636F6D2E63000089
S1130A10F8B5C046F8BC08BC9E467047DD0000002F
S1130A20F8B5C046F8BC08BC9E467047B500000047
S9030000FC
